{
    "contractName": "PoSP",
    "abi": [
        {
            "inputs": [
                {
                    "internalType": "string",
                    "name": "name_",
                    "type": "string"
                },
                {
                    "internalType": "string",
                    "name": "symbol_",
                    "type": "string"
                }
            ],
            "stateMutability": "nonpayable",
            "type": "constructor"
        },
        {
            "anonymous": false,
            "inputs": [
                {
                    "indexed": true,
                    "internalType": "address",
                    "name": "owner",
                    "type": "address"
                },
                {
                    "indexed": true,
                    "internalType": "address",
                    "name": "approved",
                    "type": "address"
                },
                {
                    "indexed": true,
                    "internalType": "uint256",
                    "name": "tokenId",
                    "type": "uint256"
                }
            ],
            "name": "Approval",
            "type": "event"
        },
        {
            "anonymous": false,
            "inputs": [
                {
                    "indexed": true,
                    "internalType": "address",
                    "name": "owner",
                    "type": "address"
                },
                {
                    "indexed": true,
                    "internalType": "address",
                    "name": "operator",
                    "type": "address"
                },
                {
                    "indexed": false,
                    "internalType": "bool",
                    "name": "approved",
                    "type": "bool"
                }
            ],
            "name": "ApprovalForAll",
            "type": "event"
        },
        {
            "anonymous": false,
            "inputs": [
                {
                    "indexed": true,
                    "internalType": "address",
                    "name": "previousOwner",
                    "type": "address"
                },
                {
                    "indexed": true,
                    "internalType": "address",
                    "name": "newOwner",
                    "type": "address"
                }
            ],
            "name": "OwnershipTransferred",
            "type": "event"
        },
        {
            "anonymous": false,
            "inputs": [
                {
                    "indexed": true,
                    "internalType": "address",
                    "name": "from",
                    "type": "address"
                },
                {
                    "indexed": true,
                    "internalType": "address",
                    "name": "to",
                    "type": "address"
                },
                {
                    "indexed": true,
                    "internalType": "uint256",
                    "name": "tokenId",
                    "type": "uint256"
                }
            ],
            "name": "Transfer",
            "type": "event"
        },
        {
            "anonymous": false,
            "inputs": [
                {
                    "indexed": false,
                    "internalType": "address",
                    "name": "_user",
                    "type": "address"
                },
                {
                    "indexed": false,
                    "internalType": "address",
                    "name": "_lab",
                    "type": "address"
                },
                {
                    "indexed": false,
                    "internalType": "uint256",
                    "name": "_id",
                    "type": "uint256"
                }
            ],
            "name": "createPoSP",
            "type": "event"
        },
        {
            "inputs": [
                {
                    "internalType": "address",
                    "name": "to",
                    "type": "address"
                },
                {
                    "internalType": "uint256",
                    "name": "tokenId",
                    "type": "uint256"
                }
            ],
            "name": "approve",
            "outputs": [],
            "stateMutability": "nonpayable",
            "type": "function"
        },
        {
            "inputs": [
                {
                    "internalType": "address",
                    "name": "owner",
                    "type": "address"
                }
            ],
            "name": "balanceOf",
            "outputs": [
                {
                    "internalType": "uint256",
                    "name": "",
                    "type": "uint256"
                }
            ],
            "stateMutability": "view",
            "type": "function"
        },
        {
            "inputs": [
                {
                    "internalType": "uint256",
                    "name": "tokenId",
                    "type": "uint256"
                }
            ],
            "name": "getApproved",
            "outputs": [
                {
                    "internalType": "address",
                    "name": "",
                    "type": "address"
                }
            ],
            "stateMutability": "view",
            "type": "function"
        },
        {
            "inputs": [
                {
                    "internalType": "address",
                    "name": "_lab",
                    "type": "address"
                },
                {
                    "internalType": "address",
                    "name": "_user",
                    "type": "address"
                }
            ],
            "name": "getPoSP",
            "outputs": [
                {
                    "components": [
                        {
                            "internalType": "uint256",
                            "name": "id",
                            "type": "uint256"
                        },
                        {
                            "internalType": "address",
                            "name": "user",
                            "type": "address"
                        },
                        {
                            "internalType": "address",
                            "name": "lab",
                            "type": "address"
                        },
                        {
                            "internalType": "string",
                            "name": "title",
                            "type": "string"
                        },
                        {
                            "internalType": "string",
                            "name": "message",
                            "type": "string"
                        },
                        {
                            "internalType": "string",
                            "name": "date",
                            "type": "string"
                        },
                        {
                            "internalType": "string",
                            "name": "tokenName",
                            "type": "string"
                        },
                        {
                            "internalType": "string",
                            "name": "symbol",
                            "type": "string"
                        },
                        {
                            "internalType": "address",
                            "name": "smartcontract",
                            "type": "address"
                        }
                    ],
                    "internalType": "struct PoSP.PoSPStruct",
                    "name": "",
                    "type": "tuple"
                }
            ],
            "stateMutability": "view",
            "type": "function"
        },
        {
            "inputs": [
                {
                    "internalType": "address",
                    "name": "_lab",
                    "type": "address"
                }
            ],
            "name": "getPosPlist",
            "outputs": [
                {
                    "components": [
                        {
                            "internalType": "uint256",
                            "name": "id",
                            "type": "uint256"
                        },
                        {
                            "internalType": "address",
                            "name": "user",
                            "type": "address"
                        },
                        {
                            "internalType": "address",
                            "name": "lab",
                            "type": "address"
                        },
                        {
                            "internalType": "string",
                            "name": "title",
                            "type": "string"
                        },
                        {
                            "internalType": "string",
                            "name": "message",
                            "type": "string"
                        },
                        {
                            "internalType": "string",
                            "name": "date",
                            "type": "string"
                        },
                        {
                            "internalType": "string",
                            "name": "tokenName",
                            "type": "string"
                        },
                        {
                            "internalType": "string",
                            "name": "symbol",
                            "type": "string"
                        },
                        {
                            "internalType": "address",
                            "name": "smartcontract",
                            "type": "address"
                        }
                    ],
                    "internalType": "struct PoSP.PoSPStruct[]",
                    "name": "",
                    "type": "tuple[]"
                }
            ],
            "stateMutability": "view",
            "type": "function"
        },
        {
            "inputs": [
                {
                    "internalType": "address",
                    "name": "owner",
                    "type": "address"
                },
                {
                    "internalType": "address",
                    "name": "operator",
                    "type": "address"
                }
            ],
            "name": "isApprovedForAll",
            "outputs": [
                {
                    "internalType": "bool",
                    "name": "",
                    "type": "bool"
                }
            ],
            "stateMutability": "view",
            "type": "function"
        },
        {
            "inputs": [
                {
                    "components": [
                        {
                            "internalType": "uint256",
                            "name": "id",
                            "type": "uint256"
                        },
                        {
                            "internalType": "address",
                            "name": "user",
                            "type": "address"
                        },
                        {
                            "internalType": "address",
                            "name": "lab",
                            "type": "address"
                        },
                        {
                            "internalType": "string",
                            "name": "title",
                            "type": "string"
                        },
                        {
                            "internalType": "string",
                            "name": "message",
                            "type": "string"
                        },
                        {
                            "internalType": "string",
                            "name": "date",
                            "type": "string"
                        },
                        {
                            "internalType": "string",
                            "name": "tokenName",
                            "type": "string"
                        },
                        {
                            "internalType": "string",
                            "name": "symbol",
                            "type": "string"
                        },
                        {
                            "internalType": "address",
                            "name": "smartcontract",
                            "type": "address"
                        }
                    ],
                    "internalType": "struct PoSP.PoSPStruct",
                    "name": "PoSPToken",
                    "type": "tuple"
                }
            ],
            "name": "mintPOSP",
            "outputs": [],
            "stateMutability": "nonpayable",
            "type": "function"
        },
        {
            "inputs": [],
            "name": "name",
            "outputs": [
                {
                    "internalType": "string",
                    "name": "",
                    "type": "string"
                }
            ],
            "stateMutability": "view",
            "type": "function"
        },
        {
            "inputs": [],
            "name": "owner",
            "outputs": [
                {
                    "internalType": "address",
                    "name": "",
                    "type": "address"
                }
            ],
            "stateMutability": "view",
            "type": "function"
        },
        {
            "inputs": [
                {
                    "internalType": "uint256",
                    "name": "tokenId",
                    "type": "uint256"
                }
            ],
            "name": "ownerOf",
            "outputs": [
                {
                    "internalType": "address",
                    "name": "",
                    "type": "address"
                }
            ],
            "stateMutability": "view",
            "type": "function"
        },
        {
            "inputs": [],
            "name": "renounceOwnership",
            "outputs": [],
            "stateMutability": "nonpayable",
            "type": "function"
        },
        {
            "inputs": [
                {
                    "internalType": "address",
                    "name": "from",
                    "type": "address"
                },
                {
                    "internalType": "address",
                    "name": "to",
                    "type": "address"
                },
                {
                    "internalType": "uint256",
                    "name": "tokenId",
                    "type": "uint256"
                }
            ],
            "name": "safeTransferFrom",
            "outputs": [],
            "stateMutability": "nonpayable",
            "type": "function"
        },
        {
            "inputs": [
                {
                    "internalType": "address",
                    "name": "from",
                    "type": "address"
                },
                {
                    "internalType": "address",
                    "name": "to",
                    "type": "address"
                },
                {
                    "internalType": "uint256",
                    "name": "tokenId",
                    "type": "uint256"
                },
                {
                    "internalType": "bytes",
                    "name": "data",
                    "type": "bytes"
                }
            ],
            "name": "safeTransferFrom",
            "outputs": [],
            "stateMutability": "nonpayable",
            "type": "function"
        },
        {
            "inputs": [
                {
                    "internalType": "address",
                    "name": "operator",
                    "type": "address"
                },
                {
                    "internalType": "bool",
                    "name": "approved",
                    "type": "bool"
                }
            ],
            "name": "setApprovalForAll",
            "outputs": [],
            "stateMutability": "nonpayable",
            "type": "function"
        },
        {
            "inputs": [
                {
                    "internalType": "bytes4",
                    "name": "interfaceId",
                    "type": "bytes4"
                }
            ],
            "name": "supportsInterface",
            "outputs": [
                {
                    "internalType": "bool",
                    "name": "",
                    "type": "bool"
                }
            ],
            "stateMutability": "view",
            "type": "function"
        },
        {
            "inputs": [],
            "name": "symbol",
            "outputs": [
                {
                    "internalType": "string",
                    "name": "",
                    "type": "string"
                }
            ],
            "stateMutability": "view",
            "type": "function"
        },
        {
            "inputs": [
                {
                    "internalType": "uint256",
                    "name": "tokenId",
                    "type": "uint256"
                }
            ],
            "name": "tokenURI",
            "outputs": [
                {
                    "internalType": "string",
                    "name": "",
                    "type": "string"
                }
            ],
            "stateMutability": "view",
            "type": "function"
        },
        {
            "inputs": [
                {
                    "internalType": "address",
                    "name": "from",
                    "type": "address"
                },
                {
                    "internalType": "address",
                    "name": "to",
                    "type": "address"
                },
                {
                    "internalType": "uint256",
                    "name": "tokenId",
                    "type": "uint256"
                }
            ],
            "name": "transferFrom",
            "outputs": [],
            "stateMutability": "nonpayable",
            "type": "function"
        },
        {
            "inputs": [
                {
                    "internalType": "address",
                    "name": "newOwner",
                    "type": "address"
                }
            ],
            "name": "transferOwnership",
            "outputs": [],
            "stateMutability": "nonpayable",
            "type": "function"
        }
    ],
    "bytecode": "60806040523480156200001157600080fd5b50604051620028133803806200281383398101604081905262000034916200025b565b8151829082906200004d906000906020850190620000fe565b50805162000063906001906020840190620000fe565b505050620000806200007a6200009f60201b60201c565b620000a3565b620000976008620000f560201b620012f51760201c565b505062000318565b3390565b600780546001600160a01b038381166001600160a01b0319831681179093556040519116919082907f8be0079c531659141344cd1fd0a4f28419497f9722a3daafe3b4186f6b6457e090600090a35050565b80546001019055565b8280546200010c90620002c5565b90600052602060002090601f0160209004810192826200013057600085556200017b565b82601f106200014b57805160ff19168380011785556200017b565b828001600101855582156200017b579182015b828111156200017b5782518255916020019190600101906200015e565b50620001899291506200018d565b5090565b5b808211156200018957600081556001016200018e565b600082601f830112620001b657600080fd5b81516001600160401b0380821115620001d357620001d362000302565b604051601f8301601f19908116603f01168101908282118183101715620001fe57620001fe62000302565b816040528381526020925086838588010111156200021b57600080fd5b600091505b838210156200023f578582018301518183018401529082019062000220565b83821115620002515760008385830101525b9695505050505050565b600080604083850312156200026f57600080fd5b82516001600160401b03808211156200028757600080fd5b6200029586838701620001a4565b93506020850151915080821115620002ac57600080fd5b50620002bb85828601620001a4565b9150509250929050565b600181811c90821680620002da57607f821691505b60208210811415620002fc57634e487b7160e01b600052602260045260246000fd5b50919050565b634e487b7160e01b600052604160045260246000fd5b6124eb80620003286000396000f3fe608060405234801561001057600080fd5b50600436106101215760003560e01c8063715018a6116100ad578063b88d4fde11610071578063b88d4fde14610271578063c87b56dd14610284578063e985e9c514610297578063f2fde38b146102d3578063fec70322146102e657600080fd5b8063715018a61461021d57806380eb5be3146102255780638da5cb5b1461024557806395d89b4114610256578063a22cb4651461025e57600080fd5b806323b872dd116100f457806323b872dd146101a357806342842e0e146101b65780635b748a8e146101c95780636352211e146101e957806370a08231146101fc57600080fd5b806301ffc9a71461012657806306fdde031461014e578063081812fc14610163578063095ea7b31461018e575b600080fd5b610139610134366004611f36565b6102f9565b60405190151581526020015b60405180910390f35b61015661034b565b60405161014591906122a9565b6101766101713660046120b0565b6103dd565b6040516001600160a01b039091168152602001610145565b6101a161019c366004611f0c565b610404565b005b6101a16101b1366004611e18565b61051f565b6101a16101c4366004611e18565b610550565b6101dc6101d7366004611de5565b61056b565b60405161014591906123a0565b6101766101f73660046120b0565b610924565b61020f61020a366004611dca565b610984565b604051908152602001610145565b6101a1610a0a565b610238610233366004611dca565b610a1e565b6040516101459190612247565b6007546001600160a01b0316610176565b610156610db4565b6101a161026c366004611ed0565b610dc3565b6101a161027f366004611e54565b610dd2565b6101566102923660046120b0565b610e0a565b6101396102a5366004611de5565b6001600160a01b03918216600090815260056020908152604080832093909416825291909152205460ff1690565b6101a16102e1366004611dca565b610f1b565b6101a16102f4366004611f70565b610f94565b60006001600160e01b031982166380ac58cd60e01b148061032a57506001600160e01b03198216635b5e139f60e01b145b8061034557506301ffc9a760e01b6001600160e01b03198316145b92915050565b60606000805461035a90612438565b80601f016020809104026020016040519081016040528092919081815260200182805461038690612438565b80156103d35780601f106103a8576101008083540402835291602001916103d3565b820191906000526020600020905b8154815290600101906020018083116103b657829003601f168201915b5050505050905090565b60006103e8826112fe565b506000908152600460205260409020546001600160a01b031690565b600061040f82610924565b9050806001600160a01b0316836001600160a01b031614156104825760405162461bcd60e51b815260206004820152602160248201527f4552433732313a20617070726f76616c20746f2063757272656e74206f776e656044820152603960f91b60648201526084015b60405180910390fd5b336001600160a01b038216148061049e575061049e81336102a5565b6105105760405162461bcd60e51b815260206004820152603d60248201527f4552433732313a20617070726f76652063616c6c6572206973206e6f7420746f60448201527f6b656e206f776e6572206f7220617070726f76656420666f7220616c6c0000006064820152608401610479565b61051a838361135d565b505050565b61052933826113cb565b6105455760405162461bcd60e51b8152600401610479906122bc565b61051a838383611449565b61051a83838360405180602001604052806000815250610dd2565b6105d56040518061012001604052806000815260200160006001600160a01b0316815260200160006001600160a01b03168152602001606081526020016060815260200160608152602001606081526020016060815260200160006001600160a01b031681525090565b6001600160a01b038084166000908152600960209081526040808320868516845282529182902082516101208101845281548152600182015485169281019290925260028101549093169181019190915260038201805491929160608401919061063e90612438565b80601f016020809104026020016040519081016040528092919081815260200182805461066a90612438565b80156106b75780601f1061068c576101008083540402835291602001916106b7565b820191906000526020600020905b81548152906001019060200180831161069a57829003601f168201915b505050505081526020016004820180546106d090612438565b80601f01602080910402602001604051908101604052809291908181526020018280546106fc90612438565b80156107495780601f1061071e57610100808354040283529160200191610749565b820191906000526020600020905b81548152906001019060200180831161072c57829003601f168201915b5050505050815260200160058201805461076290612438565b80601f016020809104026020016040519081016040528092919081815260200182805461078e90612438565b80156107db5780601f106107b0576101008083540402835291602001916107db565b820191906000526020600020905b8154815290600101906020018083116107be57829003601f168201915b505050505081526020016006820180546107f490612438565b80601f016020809104026020016040519081016040528092919081815260200182805461082090612438565b801561086d5780601f106108425761010080835404028352916020019161086d565b820191906000526020600020905b81548152906001019060200180831161085057829003601f168201915b5050505050815260200160078201805461088690612438565b80601f01602080910402602001604051908101604052809291908181526020018280546108b290612438565b80156108ff5780601f106108d4576101008083540402835291602001916108ff565b820191906000526020600020905b8154815290600101906020018083116108e257829003601f168201915b5050509183525050600891909101546001600160a01b03166020909101529392505050565b6000818152600260205260408120546001600160a01b0316806103455760405162461bcd60e51b8152602060048201526018602482015277115490cdcc8c4e881a5b9d985b1a59081d1bdad95b88125160421b6044820152606401610479565b60006001600160a01b0382166109ee5760405162461bcd60e51b815260206004820152602960248201527f4552433732313a2061646472657373207a65726f206973206e6f7420612076616044820152683634b21037bbb732b960b91b6064820152608401610479565b506001600160a01b031660009081526003602052604090205490565b610a126115ba565b610a1c6000611614565b565b6001600160a01b0381166000908152600a60209081526040808320805482518185028101850190935280835260609492939192909184015b82821015610da95760008481526020908190206040805161012081018252600986029092018054835260018101546001600160a01b0390811694840194909452600281015490931690820152600382018054919291606084019190610aba90612438565b80601f0160208091040260200160405190810160405280929190818152602001828054610ae690612438565b8015610b335780601f10610b0857610100808354040283529160200191610b33565b820191906000526020600020905b815481529060010190602001808311610b1657829003601f168201915b50505050508152602001600482018054610b4c90612438565b80601f0160208091040260200160405190810160405280929190818152602001828054610b7890612438565b8015610bc55780601f10610b9a57610100808354040283529160200191610bc5565b820191906000526020600020905b815481529060010190602001808311610ba857829003601f168201915b50505050508152602001600582018054610bde90612438565b80601f0160208091040260200160405190810160405280929190818152602001828054610c0a90612438565b8015610c575780601f10610c2c57610100808354040283529160200191610c57565b820191906000526020600020905b815481529060010190602001808311610c3a57829003601f168201915b50505050508152602001600682018054610c7090612438565b80601f0160208091040260200160405190810160405280929190818152602001828054610c9c90612438565b8015610ce95780601f10610cbe57610100808354040283529160200191610ce9565b820191906000526020600020905b815481529060010190602001808311610ccc57829003601f168201915b50505050508152602001600782018054610d0290612438565b80601f0160208091040260200160405190810160405280929190818152602001828054610d2e90612438565b8015610d7b5780601f10610d5057610100808354040283529160200191610d7b565b820191906000526020600020905b815481529060010190602001808311610d5e57829003601f168201915b5050509183525050600891909101546001600160a01b03166020918201529082526001929092019101610a56565b505050509050919050565b60606001805461035a90612438565b610dce338383611666565b5050565b610ddc33836113cb565b610df85760405162461bcd60e51b8152600401610479906122bc565b610e0484848484611735565b50505050565b6060610e15826112fe565b60008281526006602052604081208054610e2e90612438565b80601f0160208091040260200160405190810160405280929190818152602001828054610e5a90612438565b8015610ea75780601f10610e7c57610100808354040283529160200191610ea7565b820191906000526020600020905b815481529060010190602001808311610e8a57829003601f168201915b505050505090506000610ec560408051602081019091526000815290565b9050805160001415610ed8575092915050565b815115610f0a578082604051602001610ef29291906121db565b60405160208183030381529060405292505050919050565b610f1384611768565b949350505050565b610f236115ba565b6001600160a01b038116610f885760405162461bcd60e51b815260206004820152602660248201527f4f776e61626c653a206e6577206f776e657220697320746865207a65726f206160448201526564647265737360d01b6064820152608401610479565b610f9181611614565b50565b610f9c6115ba565b6040808201516001600160a01b03908116600090815260096020908152838220818601519093168252919091522054156110225760405162461bcd60e51b815260206004820152602160248201527f596f2068617665206e6f77206120746f6b656e2070617274696369706174696f6044820152603760f91b6064820152608401610479565b600061102d60085490565b808352905061103a61034b565b60c0830152611047610db4565b60e083015230610100830152604080830180516001600160a01b03908116600090815260096020908152848220818801805185168452908252949091208651815593516001850180549184166001600160a01b03199283161790559251600285018054919093169316929092179055606084015180518593926110d1926003850192910190611c7f565b50608082015180516110ed916004840191602090910190611c7f565b5060a08201518051611109916005840191602090910190611c7f565b5060c08201518051611125916006840191602090910190611c7f565b5060e08201518051611141916007840191602090910190611c7f565b506101009190910151600890910180546001600160a01b03199081166001600160a01b03938416179091556040848101805184166000908152600a602090815292812080546001818101835591835291849020885160099093020191825583880151908201805486169187169190911790559051600282018054909416941693909317909155606084015180518593926111e2926003850192910190611c7f565b50608082015180516111fe916004840191602090910190611c7f565b5060a0820151805161121a916005840191602090910190611c7f565b5060c08201518051611236916006840191602090910190611c7f565b5060e08201518051611252916007840191602090910190611c7f565b506101009190910151600890910180546001600160a01b0319166001600160a01b03909216919091179055602082015161128c90826117dc565b61129a600880546001019055565b60208083015160408085015181516001600160a01b0393841681529216928201929092529081018290527fa5348f21b633edc01ad2da4594b27c05bf56f180761f6ed7a4bd5638f8c02b119060600160405180910390a15050565b80546001019055565b6000818152600260205260409020546001600160a01b0316610f915760405162461bcd60e51b8152602060048201526018602482015277115490cdcc8c4e881a5b9d985b1a59081d1bdad95b88125160421b6044820152606401610479565b600081815260046020526040902080546001600160a01b0319166001600160a01b038416908117909155819061139282610924565b6001600160a01b03167f8c5be1e5ebec7d5bd14f71427d1e84f3dd0314c0f7b2291e5b200ac8c7c3b92560405160405180910390a45050565b6000806113d783610924565b9050806001600160a01b0316846001600160a01b0316148061141e57506001600160a01b0380821660009081526005602090815260408083209388168352929052205460ff165b80610f135750836001600160a01b0316611437846103dd565b6001600160a01b031614949350505050565b826001600160a01b031661145c82610924565b6001600160a01b0316146114825760405162461bcd60e51b81526004016104799061235b565b6001600160a01b0382166114e45760405162461bcd60e51b8152602060048201526024808201527f4552433732313a207472616e7366657220746f20746865207a65726f206164646044820152637265737360e01b6064820152608401610479565b6114f18383836001611975565b826001600160a01b031661150482610924565b6001600160a01b03161461152a5760405162461bcd60e51b81526004016104799061235b565b600081815260046020908152604080832080546001600160a01b03199081169091556001600160a01b0387811680865260038552838620805460001901905590871680865283862080546001019055868652600290945282852080549092168417909155905184937fddf252ad1be2c89b69c2b068fc378daa952ba7f163c4a11628f55a4df523b3ef91a4505050565b6007546001600160a01b03163314610a1c5760405162461bcd60e51b815260206004820181905260248201527f4f776e61626c653a2063616c6c6572206973206e6f7420746865206f776e65726044820152606401610479565b600780546001600160a01b038381166001600160a01b0319831681179093556040519116919082907f8be0079c531659141344cd1fd0a4f28419497f9722a3daafe3b4186f6b6457e090600090a35050565b816001600160a01b0316836001600160a01b031614156116c85760405162461bcd60e51b815260206004820152601960248201527f4552433732313a20617070726f766520746f2063616c6c6572000000000000006044820152606401610479565b6001600160a01b03838116600081815260056020908152604080832094871680845294825291829020805460ff191686151590811790915591519182527f17307eab39ab6107e8899845ad3d59bd9653f200f220920489ca2b5937696c31910160405180910390a3505050565b611740848484611449565b61174c848484846119fd565b610e045760405162461bcd60e51b815260040161047990612309565b6060611773826112fe565b600061178a60408051602081019091526000815290565b905060008151116117aa57604051806020016040528060008152506117d5565b806117b484611b0a565b6040516020016117c59291906121db565b6040516020818303038152906040525b9392505050565b6001600160a01b0382166118325760405162461bcd60e51b815260206004820181905260248201527f4552433732313a206d696e7420746f20746865207a65726f20616464726573736044820152606401610479565b6000818152600260205260409020546001600160a01b0316156118975760405162461bcd60e51b815260206004820152601c60248201527f4552433732313a20746f6b656e20616c7265616479206d696e746564000000006044820152606401610479565b6118a5600083836001611975565b6000818152600260205260409020546001600160a01b03161561190a5760405162461bcd60e51b815260206004820152601c60248201527f4552433732313a20746f6b656e20616c7265616479206d696e746564000000006044820152606401610479565b6001600160a01b038216600081815260036020908152604080832080546001019055848352600290915280822080546001600160a01b0319168417905551839291907fddf252ad1be2c89b69c2b068fc378daa952ba7f163c4a11628f55a4df523b3ef908290a45050565b6001811115610e04576001600160a01b038416156119bb576001600160a01b038416600090815260036020526040812080548392906119b59084906123f5565b90915550505b6001600160a01b03831615610e04576001600160a01b038316600090815260036020526040812080548392906119f29084906123dd565b909155505050505050565b60006001600160a01b0384163b15611aff57604051630a85bd0160e11b81526001600160a01b0385169063150b7a0290611a4190339089908890889060040161220a565b602060405180830381600087803b158015611a5b57600080fd5b505af1925050508015611a8b575060408051601f3d908101601f19168201909252611a8891810190611f53565b60015b611ae5573d808015611ab9576040519150601f19603f3d011682016040523d82523d6000602084013e611abe565b606091505b508051611add5760405162461bcd60e51b815260040161047990612309565b805181602001fd5b6001600160e01b031916630a85bd0160e11b149050610f13565b506001949350505050565b60606000611b1783611ba7565b600101905060008167ffffffffffffffff811115611b3757611b37612489565b6040519080825280601f01601f191660200182016040528015611b61576020820181803683370190505b5090508181016020015b600019016f181899199a1a9b1b9c1cb0b131b232b360811b600a86061a8153600a8504945084611b9a57611b9f565b611b6b565b509392505050565b60008072184f03e93ff9f4daa797ed6e38ed64bf6a1f0160401b8310611be65772184f03e93ff9f4daa797ed6e38ed64bf6a1f0160401b830492506040015b6d04ee2d6d415b85acef81000000008310611c12576d04ee2d6d415b85acef8100000000830492506020015b662386f26fc100008310611c3057662386f26fc10000830492506010015b6305f5e1008310611c48576305f5e100830492506008015b6127108310611c5c57612710830492506004015b60648310611c6e576064830492506002015b600a83106103455760010192915050565b828054611c8b90612438565b90600052602060002090601f016020900481019282611cad5760008555611cf3565b82601f10611cc657805160ff1916838001178555611cf3565b82800160010185558215611cf3579182015b82811115611cf3578251825591602001919060010190611cd8565b50611cff929150611d03565b5090565b5b80821115611cff5760008155600101611d04565b600067ffffffffffffffff80841115611d3357611d33612489565b604051601f8501601f19908116603f01168101908282118183101715611d5b57611d5b612489565b81604052809350858152868686011115611d7457600080fd5b858560208301376000602087830101525050509392505050565b80356001600160a01b0381168114611da557600080fd5b919050565b600082601f830112611dbb57600080fd5b6117d583833560208501611d18565b600060208284031215611ddc57600080fd5b6117d582611d8e565b60008060408385031215611df857600080fd5b611e0183611d8e565b9150611e0f60208401611d8e565b90509250929050565b600080600060608486031215611e2d57600080fd5b611e3684611d8e565b9250611e4460208501611d8e565b9150604084013590509250925092565b60008060008060808587031215611e6a57600080fd5b611e7385611d8e565b9350611e8160208601611d8e565b925060408501359150606085013567ffffffffffffffff811115611ea457600080fd5b8501601f81018713611eb557600080fd5b611ec487823560208401611d18565b91505092959194509250565b60008060408385031215611ee357600080fd5b611eec83611d8e565b915060208301358015158114611f0157600080fd5b809150509250929050565b60008060408385031215611f1f57600080fd5b611f2883611d8e565b946020939093013593505050565b600060208284031215611f4857600080fd5b81356117d58161249f565b600060208284031215611f6557600080fd5b81516117d58161249f565b600060208284031215611f8257600080fd5b813567ffffffffffffffff80821115611f9a57600080fd5b908301906101208286031215611faf57600080fd5b611fb76123b3565b82358152611fc760208401611d8e565b6020820152611fd860408401611d8e565b6040820152606083013582811115611fef57600080fd5b611ffb87828601611daa565b60608301525060808301358281111561201357600080fd5b61201f87828601611daa565b60808301525060a08301358281111561203757600080fd5b61204387828601611daa565b60a08301525060c08301358281111561205b57600080fd5b61206787828601611daa565b60c08301525060e08301358281111561207f57600080fd5b61208b87828601611daa565b60e08301525061010091506120a1828401611d8e565b91810191909152949350505050565b6000602082840312156120c257600080fd5b5035919050565b600081518084526120e181602086016020860161240c565b601f01601f19169290920160200192915050565b600061012082518452602083015161211860208601826001600160a01b03169052565b50604083015161213360408601826001600160a01b03169052565b50606083015181606086015261214b828601826120c9565b9150506080830151848203608086015261216582826120c9565b91505060a083015184820360a086015261217f82826120c9565b91505060c083015184820360c086015261219982826120c9565b91505060e083015184820360e08601526121b382826120c9565b915050610100808401516121d1828701826001600160a01b03169052565b5090949350505050565b600083516121ed81846020880161240c565b83519083019061220181836020880161240c565b01949350505050565b6001600160a01b038581168252841660208201526040810183905260806060820181905260009061223d908301846120c9565b9695505050505050565b6000602080830181845280855180835260408601915060408160051b870101925083870160005b8281101561229c57603f1988860301845261228a8583516120f5565b9450928501929085019060010161226e565b5092979650505050505050565b6020815260006117d560208301846120c9565b6020808252602d908201527f4552433732313a2063616c6c6572206973206e6f7420746f6b656e206f776e6560408201526c1c881bdc88185c1c1c9bdd9959609a1b606082015260800190565b60208082526032908201527f4552433732313a207472616e7366657220746f206e6f6e20455243373231526560408201527131b2b4bb32b91034b6b83632b6b2b73a32b960711b606082015260800190565b60208082526025908201527f4552433732313a207472616e736665722066726f6d20696e636f72726563742060408201526437bbb732b960d91b606082015260800190565b6020815260006117d560208301846120f5565b604051610120810167ffffffffffffffff811182821017156123d7576123d7612489565b60405290565b600082198211156123f0576123f0612473565b500190565b60008282101561240757612407612473565b500390565b60005b8381101561242757818101518382015260200161240f565b83811115610e045750506000910152565b600181811c9082168061244c57607f821691505b6020821081141561246d57634e487b7160e01b600052602260045260246000fd5b50919050565b634e487b7160e01b600052601160045260246000fd5b634e487b7160e01b600052604160045260246000fd5b6001600160e01b031981168114610f9157600080fdfea264697066735822122076cff7586b4ad12246825e43b3a22e48658e392c029099b93f74cb83492e9fae64736f6c63430008070033",
    "sourcePath": "/home/avocado/Documents/AvocadoProjects/Genobank_Python_API/deploy/GenobankPythonApi/smart_contract/PoSP.sol",
    "compiler": {
        "name": "solc",
        "version": "0.8.7+commit.e28d00a7"
    },
    "functionHashes": {
        "approve(address,uint256)": "095ea7b3",
        "balanceOf(address)": "70a08231",
        "getApproved(uint256)": "081812fc",
        "getPoSP(address,address)": "5b748a8e",
        "getPosPlist(address)": "80eb5be3",
        "isApprovedForAll(address,address)": "e985e9c5",
        "mintPOSP((uint256,address,address,string,string,string,string,string,address))": "fec70322",
        "name()": "06fdde03",
        "owner()": "8da5cb5b",
        "ownerOf(uint256)": "6352211e",
        "renounceOwnership()": "715018a6",
        "safeTransferFrom(address,address,uint256)": "42842e0e",
        "safeTransferFrom(address,address,uint256,bytes)": "b88d4fde",
        "setApprovalForAll(address,bool)": "a22cb465",
        "supportsInterface(bytes4)": "01ffc9a7",
        "symbol()": "95d89b41",
        "tokenURI(uint256)": "c87b56dd",
        "transferFrom(address,address,uint256)": "23b872dd",
        "transferOwnership(address)": "f2fde38b"
    },
    "gasEstimates": {
        "creation": {
            "codeDepositCost": "1890200",
            "executionCost": "infinite",
            "totalCost": "infinite"
        },
        "external": {
            "approve(address,uint256)": "infinite",
            "balanceOf(address)": "2700",
            "getApproved(uint256)": "4795",
            "getPoSP(address,address)": "infinite",
            "getPosPlist(address)": "infinite",
            "isApprovedForAll(address,address)": "infinite",
            "mintPOSP((uint256,address,address,string,string,string,string,string,address))": "infinite",
            "name()": "infinite",
            "owner()": "2401",
            "ownerOf(uint256)": "2627",
            "renounceOwnership()": "infinite",
            "safeTransferFrom(address,address,uint256)": "infinite",
            "safeTransferFrom(address,address,uint256,bytes)": "infinite",
            "setApprovalForAll(address,bool)": "26794",
            "supportsInterface(bytes4)": "534",
            "symbol()": "infinite",
            "tokenURI(uint256)": "infinite",
            "transferFrom(address,address,uint256)": "infinite",
            "transferOwnership(address)": "28424"
        }
    }
}